S02700004F6E2D64656D616E642054726166666963206C6967687420636F6E74726F6C2E7372656372
S11300000C942A000C9477020C9447000C9447003B
S11300100C9447000C9447000C9447000C94470040
S11300200C9447000C9447000C9447000C94AA02CB
S11300300C9447000C9447000C9447000C94470020
S11300400C9447000C9447000C9447000C94470010
S11300500C94470011241FBECFE5D8E0DEBFCDBF0E
S113006010E0A0E6B0E0EAEBF5E002C005900D92E6
S1130070A037B107D9F720E0A0E7B0E001C01D9296
S1130080A837B207E1F70E940F010C94DB020C942D
S1130090000080917200811107C081E0809372009A
S11300A01092710010927000089580917000853054
S11300B051F480917200809371008F5F83708093FC
S11300C072001092700008950F931F93CF93DF93E3
S11300D0C0E0D0E00EC08E01000F111FC801885986
S11300E09F4F0E94F400C801805A9F4F0E94F40061
S11300F02196C430D1057CF3DF91CF911F910F91EC
S113010008950F931F93CF93DF93C0E0D0E00EC008
S11301108E01000F111FC80188599F4F0E940201D0
S1130120C801805A9F4F0E9402012196C430D10514
S11301307CF3DF91CF911F910F910895809172000C
S1130140813011F0833019F590E0880F991F885998
S11301509F4F0E9409018091710090E0880F991FC0
S113016088599F4F0E94FB008091720090E0880F95
S1130170991F805A9F4F0E9409018091710090E05D
S1130180880F991F805A9F4F0E94FB0014C00E9441
S113019081008091720090E0880F991F88599F4FC9
S11301A00E94FB008091720090E0880F991F805A92
S11301B09F4F0E94FB00809170008F5F80937000BE
S11301C008950E9464008EE990E00E94A50289E4EB
S11301D090E00E9472020E9465020E949E020E94A8
S11301E09E000E945500FDCF41E0FC0161818081A9
S11301F00E941401089541E0FC01618180810E9404
S11302009D01089540E0FC01618180810E949D016F
S11302100895FC01618180810E94260208950E9454
S1130220E10080E090E00895623451F118F4613403
S113023041F00895633409F442C0643409F45EC0A3
S11302400895413069F44AB321E030E0B90102C0B5
S1130250660F771F8A95E2F7CB01842B8ABB08953A
S113026041116AC04AB321E030E0B90102C0660F0F
S1130270771F8A95E2F7CB01809584238ABB089582
S1130280413069F447B321E030E0B90102C0660FA0
S1130290771F8A95E2F7CB01842B87BB0895411120
S11302A04BC047B321E030E0B90102C0660F771FAD
S11302B08A95E2F7CB018095842387BB089541306A
S11302C069F444B321E030E0B90102C0660F771F3E
S11302D08A95E2F7CB01842B84BB089541112CC08D
S11302E044B321E030E0B90102C0660F771F8A955C
S11302F0E2F7CB018095842384BB0895413069F4EF
S113030041B321E030E0B90102C0660F771F8A953E
S1130310E2F7CB01842B81BB089541110DC041B399
S113032021E030E0B90102C0660F771F8A95E2F739
S1130330CB018095842381BB0895623451F118F474
S1130340613441F00895633409F442C0643409F41B
S11303505EC00895413069F44BB321E030E0B90147
S113036002C0660F771F8A95E2F7CB01842B8BBB03
S1130370089541116AC04BB321E030E0B90102C0D5
S1130380660F771F8A95E2F7CB01809584238BBB98
S11303900895413069F448B321E030E0B90102C066
S11303A0660F771F8A95E2F7CB01842B88BB0895EB
S11303B041114BC048B321E030E0B90102C0660FDF
S11303C0771F8A95E2F7CB018095842388BB089533
S11303D0413069F445B321E030E0B90102C0660F51
S11303E0771F8A95E2F7CB01842B85BB08954111D1
S11303F02CC045B321E030E0B90102C0660F771F7D
S11304008A95E2F7CB018095842385BB089541301A
S113041069F442B321E030E0B90102C0660F771FEE
S11304208A95E2F7CB01842B82BB089541110DC05C
S113043042B321E030E0B90102C0660F771F8A950C
S1130440E2F7CB018095842382BB08956234B1F036
S113045018F4613431F008956334E9F0643441F1FF
S113046008954BB321E030E0B90102C0660F771F55
S11304708A95E2F7CB0184278BBB089548B321E02A
S113048030E0B90102C0660F771F8A95E2F7CB010D
S1130490842788BB089545B321E030E0B90102C048
S11304A0660F771F8A95E2F7CB01842785BB0895F1
S11304B042B321E030E0B90102C0660F771F8A958C
S11304C0E2F7CB01842782BB089582B3846082BBA8
S11304D080E48BBF85B7826085BF85B7816085BFA7
S11304E078940895909374008093730008951F92F4
S11304F00F920FB60F9211242F933F934F935F9354
S11305006F937F938F939F93AF93BF93EF93FF93D7
S1130510E0917300F09174000995FF91EF91BF9100
S1130520AF919F918F917F916F915F914F913F9187
S11305302F910F900FBE0F901F90189512BE81E05F
S113054089BF789485E083BF089590937600809363
S1130550750008951F920F920FB60F9211242F93D6
S11305603F934F935F936F937F938F939F93AF9337
S1130570BF93EF93FF9380917700803129F4E0914A
S11305807500F09176000995809177008F708F5FE8
S113059080937700FF91EF91BF91AF919F918F91DD
S11305A07F916F915F914F913F912F910F900FBE6B
S10D05B00F901F901895F894FFCFE8
S11305BA0041014102410141004301430243014315
S9030000FC
